:030000000208DD16
:0C08DD00787FE4F6D8FD75812002080049
:0708CF007FC81208D67FC8A4
:0708D600EF60031F80FA220E
:10089800AD07AC06ED4C601543E1101208CF120805
:0E08A800CF7FC81208D6ED1D70EA1C80E72233
:10083E00A2AF920175E780E4F5E375E44C75E5052A
:10084E0075E64675E6B900AFE25307FE8FE275E531
:0C085E000475E64675E6B900F5E7F5E51F
:01086A00226B
:10086B00A2AF920075E780E4F5E375E44C75E505FE
:10087B0075E64675E6B900AFE25307FD8FE275E505
:0C088B000475E64675E6B900F5E7F5E5F2
:01089700223E
:1008B60053B1FC53B2FC53B1F743B20843B370755E
:0908C600AC0253928FE4F5AC2260
:0308E9000208B64C
:100800001208E9C2B3C2EEC2B27FD07E07120898C6
:10081000D2B3D2EED2B27FD012089812083EC2EC08
:10082000C2B3C2EEC2EDD2EDD2EC7FD07E07120889
:0E08300098C2EDC2EC7FD0120898C2B380E8E7
:00000001FF
